:0200000490006A
:1000000038730024AD020090A1380090D9350090DB
:10001000993800900909009099EE009000000000C6
:10002000000000000000000000000000913C009073
:10003000110900900000000041390090193D009026
:10004000C7020090C7020090C7020090C70200904C
:10005000C7020090C7020090C7020090C70200903C
:10006000C7020090C7020090C7020090C70200902C
:10007000C7020090C7020090C7020090C70200901C
:10008000C7020090C7020090C7020090C70200900C
:10009000C7020090C7020090C7020090C7020090FC
:1000A000C7020090C7020090C7020090C7020090EC
:1000B000C7020090C7020090C7020090C7020090DC
:1000C000C7020090C7020090C7020090C7020090CC
:1000D000C7020090C7020090C7020090C7020090BC
:1000E000C7020090C702009000000000C702009005
:1000F000C7020090C7020090C7020090C70200909C
:10010000C7020090C7020090C7020090C70200908B
:10011000C7020090C7020090C7020090C70200907B
:10012000C7020090C7020090C7020090C70200906B
:10013000C7020090C7020090C7020090C70200905B
:1001400000000000000000000000000000000000AF
:10015000C7020090C7020090C7020090C70200903B
:10016000C7020090C7020090C7020090C70200902B
:10017000C7020090C7020090C7020090C70200901B
:10018000C7020090C7020090C7020090C70200900B
:10019000C7020090C7020090C7020090C7020090FB
:1001A00061370090C7020090C7020090C70200901C
:1001B000C7020090C7020090C7020090C7020090DB
:1001C000C7020090C7020090C7020090C7020090CB
:1001D000C7020090C7020090C7020090C7020090BB
:1001E000C7020090C7020090C7020090C7020090AB
:1001F000C7020090C7020090C7020090C70200909B
:10020000C7020090C7020090C7020090C70200908A
:10021000C7020090C7020090593F0090C7020090AB
:10022000C7020090C7020090C702009000000000C3
:10023000C7020090C702009000000000C7020090B3
:10024000C7020090C7020090C7020090C70200904A
:10025000C7020090C7020090C7020090C70200903A
:10026000C7020090C7020090C7020090C70200902A
:10027000C7020090C7020090C70200900000000073
:10028000C7020090C7020090C70200900000000063
:1002900000000000C7020090DFF80CD000F086FAE2
:1002A00000480047412101903873002406488047E8
:1002B00006480047FEE7FEE7FEE7FEE7FEE7FEE74B
:1002C000FEE7FEE7FEE7FEE7793E00909902009028
:1002D0002DE9F05F0546002092469B46884606467B
:1002E000814640241BE0284641464746224600F00E
:1002F00095F853465A46C01A914110D311461846F4
:10030000224600F07CF82D1A67EB01084F46224682
:100310000120002100F073F817EB00094E41201E68
:10032000A4F10104DFDC484631462A464346BDE8D5
:10033000F09F10B5431A934209D28318881803E03E
:1003400010F8011D03F8011D521EF9D210BD40EA3C
:1003500001039B0703D009E008C9121F08C0042A43
:10036000FAD203E011F8013B00F8013B521EF9D22A
:1003700010BDD2B201E000F8012B491EFBD270473C
:100380000022F6E710B513460A4604461946FFF761
:10039000F0FF204610BD421C10F8011B0029FBD1C4
:1003A000801A704710B5002200E0521C835C8C5C00
:1003B000A34201D1002BF8D1D8B2E1B2401A10BD4E
:1003C000034611F8012B00F8012B002AF9D1184639
:1003D000704730B50B46014600202022012409E079
:1003E00021FA02F59D4205D303FA02F5491B04FAEE
:1003F00002F52844151EA2F10102F1DC30BD202ACD
:1004000004DB203A00FA02F1002070479140C2F16B
:10041000200320FA03F3194390407047202A04DB9D
:10042000203A21FA02F00021704721FA02F3D0406D
:10043000C2F1200291400843194670472DE9FE4F52
:10044000804681EA0300C00F0C46009021F0004175
:1004500023F00045B8EB0200A94105D240462146F1
:1004600090461C460B46024623F00040104347D0FE
:10047000270DC7F30A00C3F30A510290401A0190F6
:1004800040286BDAC3F3130040F4801B00989246B7
:1004900020B10023D2EB030A63EB0B0B0198594602
:1004A000C0F140025046FFF7AAFF06460D465046EF
:1004B0005946019A00F08CF910EB080061410024C4
:1004C00087EA115284EAE7731A4340D0009A62B374
:1004D000019A012A4FEA075215DC001B61EB020169
:1004E0004FF0004202EA0752CDE90042001C41F5FC
:1004F000801132462B4600F08CF903B0BDE8F08F36
:1005000040462146F9E7001B61EB0201001C41F562
:10051000801300185B412018A2F5001747EB030178
:1005200040EAD570B6196D4111E06D084FEA360604
:1005300045EAC0754FEA0752001B61EB0201001C3F
:1005400041F5801149084FEA300000195141324607
:100550002B4603B0BDE8F04F00F04CB900980122E3
:1005600040000023D0EB020263EBE07300982146C9
:100570004FEAE074B8EB000061EB0401E9E783F0B7
:1005800000435BE781F0004158E72DE9FE4F81EA27
:10059000030404F0004421F0004100944FF0000BEC
:1005A00023F0004350EA01045ED052EA03045BD01A
:1005B000C3F30A54C1F30A552C44A4F2F334019452
:1005C000A0FB0254C1F3130141F48011C3F31303E0
:1005D00043F4801301FB024400FB034E840A970A94
:1005E00044EA815447EA8357A4FB076802958D0AC1
:1005F00005FB07854FEA932C04FB0C542705029D4D
:100600004FEA065847EA1637B5EB08056EEB070CBC
:10061000870E920E47EA811742EA8312A7FB020176
:10062000B6EB0B0164EB00042B0D43EA0C335E18B0
:1006300044EB1C50DA465146E7FB0201C5F31304B4
:100640004FEA0B3343EA14534FEA0432019C43EA66
:100650000603A4F10C040294009CCDE900B400F060
:10066000D8F803B0BDE8F08F00200146F9E72DE986
:10067000F04D81EA030404F0004B21F000451446DC
:100680004FF0000A23F0004150EA050220D054EA5E
:1006900001021DD0C5F30A570246C5F31303C1F387
:1006A0001300C1F30A5640F4801543F48013A7EBFE
:1006B0000608101BD64608F2FD3873EB050002D37E
:1006C00008F1010801E092185B41B8F1000F03DA6C
:1006D00000200146BDE8F08D00204FF48011064651
:1006E00084460EE0171B73EB050705D3121B63EB63
:1006F000050306434CEA010C49084FEA3000921802
:100700005B4150EA0107EDD152EA030012D082EAC0
:10071000040083EA0501084305D0101BAB4106D253
:100720000122002306E000224FF0004302E06FF0B8
:10073000010253101AEB06004CEB085110EB0A00B3
:1007400041EB0B01BDE8F04D00F054B8C1F30A5283
:10075000C1F3130140F2FF3341F480119A4202DAEF
:1007600000200146704740F233439A42A2F23342DE
:1007700002DC5242FFF752BEFFF741BE30B5041E05
:1007800071F1000404DB4FF00044404264EB0101CE
:10079000141E73F1000405DB1C464FF00043524267
:1007A00063EB0403994208BF904230BD064C074DED
:1007B00006E0E06840F0010394E807009847103431
:1007C000AC42F6D3FFF76CFD7CFC0290ACFC0290CF
:1007D000202A06DBCB17203A41FA02F043EAE07305
:1007E00006E041FA02F3D040C2F1200291400843F2
:1007F0001946704710B5141E73F1000408DA401C46
:1008000041F1000192185B411A4301D120F001002F
:1008100010BD2DE9F04D92469B4611B1B1FA81F21F
:1008200002E0B0FA80F220329046FFF7E8FD04467D
:100830000F4640EA0A0041EA0B0153465A46084374
:1008400013D0114653EA010019D0C8F140025046B6
:10085000FFF7E4FD05460E46504659464246FFF76F
:10086000CEFD084305D0012004E020463946BDE80E
:10087000F08D0020054346EAE0762C4337430A9882
:100880006305E40AA0EB08000022FD0A44EA47548D
:100890000A3002D500200146E9E701051019694137
:1008A000DDE9084500196941BDE8F04DA2E770B5E2
:1008B0008C1810F8015B15F0070301D110F8013B0B
:1008C0002A1106D110F8012B03E010F8016B01F892
:1008D000016B5B1EF9D12B0705D40023521E0DD4EA
:1008E00001F8013BFAE710F8013BCB1A921C03E038
:1008F00013F8015B01F8015B521EF9D5A142D8D370
:10090000002070BD00000000FEE7000000000000B5
:100910007047000000000000EFF3108072B600BFC7
:10092000FEE700000000000070B50A68002A0246D9
:1009300000681DD020F4F84001F1080CD1E9073619
:1009400018434B6A304301F10C0E1843106052F803
:10095000040F47F6FF7320EA03054E6801F110000B
:1009600001F1140301F1180445EA060114E000BF87
:100970000E1D47F6FF73984301F1140C78CE034324
:1009800001F1180E1C4301F11C00254301F1200365
:1009900001F1240445EA0601DCF80060DEF80050AD
:1009A0003143006829431B680843246840EA030177
:1009B00000202143116070BD0246406943F6FE737A
:1009C00020EA0303002043EA41015161704700001F
:1009D00010B5024600696FF315006FF01F04D1E9EE
:1009E00000ECD1E9023140EA0E0004EB431340EA87
:1009F0000C000343002043EA4121116110BD0000B7
:100A00002DE9F043002A024652F8083F2ED040F666
:100A1000FF724FF20006CFF60F72CFF6FF761A4044
:100A2000CB684F6906EB03330026CFF6F0761A4306
:100A300006EB07573A43826050F80C2F8E68D1E9D5
:100A400000375D1E6FF00F0303EB071C6FF0FF0311
:100A50000C6903EB062E002302F07042CFF6FF7301
:100A600003EB044345EA0204024624E001F10809CD
:100A700003F07048D1E9003499E861026FF00F0784
:100A8000013B07EB04146FF0FF0707EB00204FF268
:100A90000007CFF6FF7743EA080307EB053C002782
:100AA0000025CFF6FF77CFF6F0751C4307EB064E17
:100AB000044305EB0953886944EA0C01471E41EAE7
:100AC0000E0040EA0301002041EA07611160BDE821
:100AD000F08300000000000070B515460C46064685
:100AE00007F016FE07F014FEBA200CF0D5FB012823
:100AF00007D1300A0CF0D0FB012802D1F0B20CF083
:100B0000CBFB07F005FEBB200CF0C6FB012815D17E
:100B100064B1013D644200BFB4F1FF3018BF012051
:100B200006F0DEFE013405F8010FF5D309F040F8B8
:100B3000002409F03DF8204670BD00BF012409F0F3
:100B400037F8204670BD00002DE9F04190F8602094
:100B5000012A4FF0020256D0C1EBC10380F8612098
:100B600000EB830303F1280CD3E90B42D3E90D8595
:100B7000DE6B44EA0242A4F1090E4FEA0867BEF1B7
:100B8000020F42EA055238BF08F07F4742EA465258
:100B9000002942EA07011BD00B2C4FF6F074C0F27B
:100BA000CC0404D11A6CA4F5402441EA82410368C4
:100BB000BEF1010FDA6902EA040241EA0201D961D9
:100BC000DCF80010196118D828F07F41196214E090
:100BD00002684FF6F074C0F2CC04BEF1010F536A04
:100BE00003EA040341EA03015162DCF80010916159
:100BF00003D8416B21F07F4191620022012180F8EE
:100C0000611080F860201046BDE8F081000000000F
:100C1000E0B310B5044690F8610028B9002084F8CC
:100C20006000204600F034F8022084F8610094E867
:100C300003404FF6BF72D4F80CC00368CFF6F872C9
:100C40001A40E369114340F2071219430160416BF6
:100C50009143A26941EA0E0111434163016C4FF6D1
:100C6000FF72914341EA0C010164416B226921F456
:100C70004011636941EA025141EA43514163002056
:100C80006066012184F8611010BD00BF012070472B
:100C900081B041F200010068C5F20021884201D014
:100CA00001B0704744F2D440C5F60200016841F03B
:100CB00010010160006800F010000090009801B081
:100CC0007047000000000000B0B5044600F024F9B1
:100CD00040F204010546C2F20041621C097818BFC7
:100CE0000C4400BF00F018F9401BA042FAD3B0BD7D
:100CF0002DE9F04F85B00D680290002D00F0E680E0
:100D000002988E4600F126420A2102F1FF7342F258
:100D10000042C5F60202002490424FEAB32208BF07
:100D20000921092A4FF0010738BF4FEAB3210026F5
:100D30004FF000080091CDF80CE00DE0DEF8005017
:100D400008F1010835FA07F006F1020607F101077C
:100D500004F1040400F0BA80A7F1010A012000FAAE
:100D60000AF315EA0309E9D0DEF804B00BF0030535
:100D70006A1E012A22D802984FEA4801D0F808C01A
:100D80000191032101FA06F203992CEA020CD1F831
:100D90000CE00EFA06F1DDF80CE041EA0C0181608E
:100DA00041686FEA020CCBF30012994303460198A5
:100DB00002FA0AF2114359600CE000BF0320032D30
:100DC00000FA06F0029B6FEA000C304602D1304672
:100DD000032526E0D968DEF8082001EA0C018240EC
:100DE000022D41EA0201D9601BD102466FF00300D7
:100DF00000EA5A010F20194404F01C0300FA03F51D
:100E00001046D1F820E0039A2EEA0505DDF80CE043
:100E100012699A40029B2A430A62DEF804B00BF082
:100E20000305196805FA00F001EA0C011BF4403FC4
:100E300040EA010018603FF481AF44F2F44140F20F
:100E40000845C5F60201C5F600050F23086840F005
:100E500002000860086800F0020004902AF0030015
:100E6000049904F00C0142598B409A43009B03FA09
:100E700001F1114341514FF0B0452868DEF80410EC
:100E800040EA0902CB0258BF20EA09028B022A601D
:100E900040F20405C5F60005286840EA090258BF7B
:100EA00020EA09028B032A60D5F8800040EA090293
:100EB00058BF20EA0902C903C5F88020E86F40EA5C
:100EC000090258BF20EA0902EA6737E705B0BDE822
:100ED000F08F0000000000000069084018BF0120EA
:100EE0007047000000000000426902EA01039143DC
:100EF00041EA034181617047002A08BF090481610A
:100F0000704700000000000041F20000C5F60040FC
:100F10000068000C7047000044F63840C2F2004000
:100F2000006870470000000040F2040044F63841B9
:100F3000C2F20040C2F2004100780A681044086022
:100F4000704700000000000080B5032000F0FCFAAC
:100F500001F0FEFB44F2184147F2F433C5F60201FA
:100F6000C9F201030A68096801F00F01C2F3032204
:100F7000595C9A5C01F01F0102F01F02D04040F260
:100F80001002C2F2004220FA01F1116040F20C019D
:100F9000C2F2004108600F2000F00AF800281CBFD0
:100FA000012080BD00F078FA002080BD0000000024
:100FB000B0B58AB00F283ED80446762000222146DC
:100FC000002500F091FA762000F07EFA40F2080049
:100FD000C2F20040046044F2F040C5F6020001682D
:100FE00041F480210160006801A900F48020029092
:100FF000029802A801F0F8FA01F07AFB4DF683613D
:101000004000C4F21B3144F60002A0FB010140F68F
:101010007410C2F200404FF0FF33C4F201020260CC
:1010200003EB9141C0E9011540F2E731C0E9031536
:1010300001F0CEFF10B101200AB0B0BD40F674102F
:10104000C2F2004001F0F8FF0AB0B0BD000000009D
:101050002DE9F041044690F8A00001284FF002006D
:1010600008BFBDE8F08134234FF0010884F8A08068
:1010700084F8A10002FB0340D1E900CED1E9026768
:10108000D1E90435C0E91235C0E91067C0E90ECED8
:10109000D1E906CED1E90865D1E90A37C0E91837A8
:1010A000C0E91665C0E914CE0B6B8366206802F0B8
:1010B0005FFB2068C0F82480002084F8A18084F8B9
:1010C000A000BDE8F08100007047000000000000B3
:1010D000B0B504460068816B426B02EA01056907FE
:1010E00028D4A8073CD4E8070ED02068416B21F033
:1010F000010141630121C16384F8A110002084F83B
:10110000A000204600F0B8F8280758BFB0BD2068FE
:10111000416B21F0080141630821C163012084F87B
:10112000A100002084F8A0002046BDE8B04000F0F7
:101130005FB900BF416B21F0040141630421C16329
:10114000D4F8A40040F00100C4F8A40084F8A11071
:10115000002084F8A0002046FFF7B6FFA807C2D5FC
:101160002068416B21F0020141630221C163D4F880
:10117000A40040F00200C4F8A400042084F8A100F8
:10118000002084F8A0002046FFF79EFFE807BBD0B0
:10119000ABE7000000000000002869D010B504464D
:1011A00090F8A10028B9002084F8A000204600F0A3
:1011B0006BF8022084F8A100D4E9000CD4E90223E2
:1011C000816921F07041816142EA0C012269194371
:1011D00011438269114381614FF600028168CFF2A9
:1011E000000211408160D4E9051343EA014183689C
:1011F00019438160C1681140C160D4E9071343EA13
:101200000141C3681943C160016911400161D4E91A
:10121000091343EA0141036919430161416911401E
:101220004161D4E90B1242EA014142691143416133
:1012300094F8351094F83620C36A03F07F43C362F4
:10124000120494F8343042EA0121C26A194411436D
:10125000C162416B41F006014163816941F00101C6
:1012600081610020C4F8A400012184F8A11010BD00
:10127000012070470000000002680021536A43F01B
:101280000103536200F094B82DE9F043B7B004466F
:1012900002A80830B82100253295CDE93555CDE9B1
:1012A0003355FFF76DF841F200012068C5F20001E7
:1012B000884203D037B0BDE8F08300BF4FF0005044
:1012C000029019200C904FF4A5700D900A20039500
:1012D000CDE9100502A84FF00208CDE90E88CDE94E
:1012E000125500F0ADFA08B1FFF716FB44F2E040EA
:1012F00042F20004C5F60200C5F6020432AD4FF01A
:1013000000094168032641F00801416041680E2749
:1013100001F0080101910199016841F480610160C7
:10132000016801F4806101910199016841F4007143
:101330000160016801F4007101910199016841F4B3
:10134000807101600068294600F480700190019866
:10135000FF20CDE9320804F50060CDF8D090359635
:101360003697FFF7C5FC32A94FF6FF70CDE9356718
:1013700081E8010304F580602946FFF7B9FC32A932
:101380004FF47040CDE9356781E8010320462946D6
:10139000FFF7AEFC58200521002200F0A5F85820E8
:1013A00000F092F837B0BDE8F083000000000000C4
:1013B00090F8A020012A4FF0020215D080F8A12059
:1013C0000268536B23F00103536341F24003C5F2FB
:1013D00000031960516B41F00101516300220121AA
:1013E00080F8A11080F8A02010467047000000008F
:1013F0007047000000000000B0B502784EF69C5C1B
:10140000CEF2000C43784CF8043CFAB14368CCF8B7
:101410000030037BC17A90F80AE0457B447A42EAC7
:101420000372837B42EA0161C27B41EACE41007ACA
:1014300041EA854141EA434141EA024141EA04214E
:1014400041EA4000CCF80400B0BD00BF0020CCF859
:101450000000CCF80400B0BD4EF62450CEF20000DF
:10146000BFF35F8F016821F48031016000210167C3
:1014700070470000000000004EF6245140F00100CB
:10148000CEF200010867086840F480300860BFF3BE
:101490004F8FBFF36F8F704781B044F2F44000224A
:1014A000C5F60200016841F00201016000680F21E9
:1014B00000F0020000906FF00100009B01B000F00E
:1014C00013B8000000000000002848BF704700F07B
:1014D0001F01012202FA01F14EF200124009CEF280
:1014E000000242F82010704770B54EF60C5C4FF0C9
:1014F000FF36CEF2000C00F16045DCF80030C3F39B
:10150000022E8EF00703042B28BF0423BEF1030430
:1015100006FA03F321EA030100F00F0338BF0024A9
:10152000043BB0F1FF3F634406FA04F003F10C03FF
:1015300001FA04F1C8BF05F5644322EA000008433C
:101540000001187070BD00004EF60C514FF6FF03FD
:10155000CEF200010A681A4060F30A2242F080606D
:1015600040F0FD7008607047B0B544F60C05C5F654
:10157000020529684907296806D401F00701081AFD
:1015800018BF0120B0BD00BF21F00701084328604B
:10159000FFF7C2FC044600BF55F8080C800407D4CE
:1015A000FFF7BAFC001BB0F57A7FF5D90120B0BD7A
:1015B0000020B0BD0000000080B501F041F844F209
:1015C000204147F2F432C5F60201C9F2010209686E
:1015D000C1F30211515C01F01F01C84080BD000041
:1015E00080B544F2384EC5F6020E5EF8103C5EF847
:1015F000101CC1F3053C5EF80C1CBCF1000FDEF8BA
:10160000042015D0C1F30011C2F3CC02514300EE07
:10161000101A03F003010229B8EE400A0ED089B96E
:101620005EF8381C890611D49FED361A1CE000BF05
:1016300000218160C0E9001180BD00BF9FED301A1C
:1016400012E000BF9FED2D1A0EE000BF5EF8381CBF
:1016500049F20002C0F2D032C1F3C10122FA01F115
:1016600001EE101AB8EE411ADEF800109FED263A8E
:101670006FF35F2102EE101ADEF80010C1F346216D
:10168000B8EE422A00EE032A00EE10CAB7EE003A86
:10169000B8EE400A81EE000A32EE031A02EE101A8A
:1016A000B8EE422A20EE010A32EE031A80EE011A49
:1016B000BCEEC11A80ED001ADEF80010C1F306413D
:1016C00001EE101AB8EE411A31EE031A80EE011A3B
:1016D000BCEEC11A80ED011ADEF80010C1F30661FC
:1016E00001EE101AB8EE411A31EE031A80EE010A2B
:1016F000BCEEC00A10EE101A816080BD0024744A4E
:1017000020BCBE4B0024744C0000003900000000D7
:1017100080B544F2404EC5F6020E5EF8183C5EF805
:10172000181CC1F3055C5EF8141CBCF1000FDEF858
:10173000042015D0C1F30021C2F3CC02514300EEC6
:10174000101A03F003010229B8EE400A0ED089B93D
:101750005EF8401C890611D49FED361A1CE000BFCC
:1017600000218160C0E9001180BD00BF9FED301AEB
:1017700012E000BF9FED2D1A0EE000BF5EF8401C86
:1017800049F20002C0F2D032C1F3C10122FA01F1E4
:1017900001EE101AB8EE411ADEF800109FED263A5D
:1017A0006FF35F2102EE101ADEF80010C1F346213C
:1017B000B8EE422A00EE032A00EE10CAB7EE003A55
:1017C000B8EE400A81EE000A32EE031A02EE101A59
:1017D000B8EE422A20EE010A32EE031A80EE011A18
:1017E000BCEEC11A80ED001ADEF80010C1F306410C
:1017F00001EE101AB8EE411A31EE031A80EE011A0A
:10180000BCEEC11A80ED011ADEF80010C1F30661CA
:1018100001EE101AB8EE411A31EE031A80EE010AF9
:10182000BCEEC00A10EE101A816080BD0024744A1C
:1018300020BCBE4B0024744C0000003900000000A6
:101840002DE9F0470446C07844F22C480007C5F65D
:10185000020833D5A06E4FEA305103290CD8DFE8D7
:1018600001F003111D2600BFD8F8001041F400312B
:10187000C8F800101BE000BF01266078C0070BD03D
:1018800020E000BF04F10800022102F08DF80646B6
:1018900060B16078C00715D1354646E004F12800F4
:1018A000022102F015F906460028F2D1A06ED8F800
:1018B000241021F440110843C8F824000026607861
:1018C000C007E9D0A06D04280ED83546DFE800F047
:1018D0000412181E1E0000BFD8F80000354640F460
:1018E0000030C8F8000011E001250127607880076A
:1018F0001FD452E004F10800002102F055F804E082
:1019000004F12800002102F0E3F805462F461DB13E
:10191000607880070DD440E0D8F82400A16D20F055
:10192000070000250843C8F8240037466078800780
:1019300033D5E06D4FEAB01004280DD8DFE800F091
:101940000412181E1E0000BFD8F8000040F400303A
:10195000C8F8000012E000BF0125012660784007AA
:101960001FD455E004F10800002102F01DF804E046
:1019700004F12800002102F0ABF805462E461DB107
:10198000607840070DD443E0D8F82400E16D20F4DE
:10199000E07000250843C8F824003E466078400700
:1019A00036D5D4F8A8004FEA705004280CD8DFE8E8
:1019B00000F00313191F1F00D8F8000040F4003096
:1019C000C8F8000014E000BF01254FF0010960785D
:1019D000000721D456E000BF04F10800002101F007
:1019E000E3FF04E004F12800002102F071F805464D
:1019F000A9461DB1607800070ED443E0D8F82C004A
:101A0000D4F8A81020F4600000250843C8F82C0082
:101A1000B1466078000735D5D4F8AC004FEA3060A5
:101A200004280DD8DFE800F00412181E1E0000BFC5
:101A3000D8F8000040F40030C8F8000012E000BF01
:101A400001250127E078800720D44EE004F108004A
:101A5000002101F0A9FF04E004F12800002102F0B8
:101A600037F805462F461DB1E07880070ED43CE0DC
:101A7000D8F82C00D4F8AC1020F0E0600025084322
:101A8000C8F82C004F46E07880072ED5E06C4FEA6E
:101A9000301003280ED8DFE800F00903130900BF57
:101AA000D8F8000040F40030C8F800002E467DB998
:101AB00012E000BF012501266078C00619D44CE071
:101AC00004F10800022101F06FFF05462E461DB10A
:101AD0006078C0060DD440E0D8F82000E16C20F01A
:101AE000300000250843C8F820003E466078C00654
:101AF00033D5206E4FEA303004280DD8DFE800F0EF
:101B00000412181E1E0000BFD8F8000040F4003078
:101B1000C8F8000012E000BF0125012760788006A8
:101B20001FD44EE004F10800002101F03DFF04E065
:101B300004F12800002101F0CBFF05462F461DB11E
:101B4000607880060DD43CE0D8F82400216E20F4A3
:101B5000E04000250843C8F8240037466078800636
:101B60002FD5606E4FEA3040052809D8DFE800F035
:101B7000040E1404040400BF2E46ADB918E000BFE3
:101B800001250126607840061FD44FE004F10800CB
:101B9000012101F009FF04E004F12800012101F016
:101BA00097FF05462E461DB1607840060DD43DE0F6
:101BB000D8F82400616E20F4E02000250843C8F81E
:101BC00024003E466078400630D5D4F8B0004FEA95
:101BD0003070052808D8DFE800F0030D1303030375
:101BE0002F46ADB918E000BF012501276078000637
:101BF00020D442E004F10800012101F0D5FE04E008
:101C000004F12800012101F063FF05462F461DB1B4
:101C1000607800060ED430E0D8F82C00D4F8B0106C
:101C200020F0E04000250843C8F82C0037466078D3
:101C3000000622D5206F58B1B0F1005F0CD0B0F192
:101C4000805F2FD1D8F8000040F40030C8F80000C1
:101C50002E469DB908E000BF04F10800012101F003
:101C6000A3FE05462E464DB9D8F82400216F20F07A
:101C7000405000250843C8F824003E46E078C007DD
:101C800033D0A06C032813D8DFE800F008021A084C
:101C9000D8F8000040F40030C8F80000A946BDB9EB
:101CA0001AE000BF01250126E078C007E9D11CE059
:101CB00001254FF00109A07840061AD51CE000BFAD
:101CC00004F10800022101F06FFE0546A9461DB18E
:101CD000A07840060DD50FE0D8F82000A16C20F0C8
:101CE000030000250843C8F82000B146A07840064C
:101CF00002D44F4618E000BFD8F8D40340F48070F7
:101D0000C8F8D403FFF708F9064600BFD8F8D40393
:101D1000C00507D4FFF700F9801B6428F6D9032516
:101D2000032701E02F468DB12078C00761D0E06F16
:101D30004FEAF00005283BD8DFE800F004404604F5
:101D4000040400BF002D2E4646D149E0D8F84410C7
:101D5000D4F8B400414011F4407F11D0D8F84410B9
:101D6000D8F8442042F48032C8F84420D8F84420FF
:101D700021F4407122F48032C8F84420C8F844109D
:101D8000B0F5807F40F0E082FFF7C6F8064641F2EA
:101D9000883A0325032700BFD8F84400800700F1E4
:101DA000D182FFF7B9F8801B5045F5D9BCE700BFD9
:101DB00001260125207880071FD44CE004F108009B
:101DC000012101F0F1FD04E004F12800012101F0FE
:101DD0007FFE05462E461DB1207880070DD43AE0DF
:101DE000D8F82800E16F20F0380000250843C8F833
:101DF00028003E46207880072DD5A06F052809D8F9
:101E0000DFE800F0040E1404040400BF2F46ADB94F
:101E100018E000BF01270125207840071FD44DE0BE
:101E200004F10800012101F0BFFD04E004F12800E5
:101E3000012101F04DFE05462F461DB120784007D7
:101E40000DD43BE0D8F82800A16F20F00700002552
:101E50000843C8F828003746207840072ED5D4F824
:101E60009400052808D8DFE800F0030D13030303EE
:101E70002E46ADB918E000BF012601252078800666
:101E800020D451E004F10800012101F08DFD04E0AF
:101E900004F12800012101F01BFE05462E461DB16C
:101EA000207880060ED43FE0D8F82C00D4F89410A7
:101EB00020F0070000250843C8F82C003E46207893
:101EC000800631D5D4F890004FEA3070052809D843
:101ED000DFE800F0040E1404040400BF2F46ADB97F
:101EE00018E000BF012701252078400620D451E0EA
:101EF00004F10800002101F057FD04E004F128007E
:101F0000022101F0E5FD05462F461DB1207840066F
:101F10000ED43FE0D8F82800D4F8901020F0E0402C
:101F200000250843C8F8280037462078400631D5F8
:101F3000D4F89C004FEAB020052809D8DFE800F06B
:101F4000040E1404040400BF2E46ADB918E000BF0F
:101F5000012601252078000620D454E004F1080071
:101F6000002101F021FD04E004F12800022101F02C
:101F7000AFFD05462E461DB1207800060ED442E086
:101F8000D8F82C00D4F89C1020F4E0500025084329
:101F9000C8F82C003E462078000634D5D4F8A000BE
:101FA0004FEA703005280FD8DFE800F004141A0457
:101FB000040400BF2F46E5B12068010727D4C106FD
:101FC0003ED4000355D475E00127012520680107A0
:101FD000F5D51CE004F10800002101F0E5FC04E067
:101FE00004F12800022101F073FD0546002D2F4663
:101FF000E2D1D8F82C00D4F8A01020F460400025DD
:102000000843C8F82C00374620680107D7D5D4F814
:102010008410B1F5805F0AD104F12800022101F09B
:1020200057FD002818BF01272068D4F88410D8F87D
:10203000282022F440521143C8F82810C106C0D508
:10204000D4F89810B1F5807F0AD104F1280002215C
:1020500001F03EFD002818BF01272068D4F8981031
:10206000D8F82C2022F440721143C8F82C10000339
:1020700020D5D4F8A400B0F5003F0FD0B0F5803FD4
:1020800006D078BB04F10800002101F08DFC04E0CB
:1020900004F12800022101F01BFD05462E4655B92A
:1020A000D8F82C00D4F8A41020F4403000250843C0
:1020B000C8F82C003E46A07840072BD5D4F88800FD
:1020C000B0F5401F0BD0B0F5001F11D0B0F5801F48
:1020D0002AD1D8F8000040F40030C8F800002F469C
:1020E000CDB90DE001260125A0784007E6D411E026
:1020F00004F12800012101F0EBFC05462F4655B9FB
:10210000D8F82800D4F8881020F44010002508439F
:10211000C8F828003746A078C0070AD13E46216893
:10212000880016D533E000BF01270125A078C0073D
:10213000F4D0206DB0F5803F10D018BBD8F8000067
:1021400040F40030C8F800002E4685B121688800B0
:102150001DD460688A0326D46BE000BF04F1080038
:10216000022101F021FC0546002D2E46EED1D8F8C3
:102170002000216D20F4803000250843C8F820009D
:10218000CCE700BF0126012521688800E1D504F1D4
:102190002800022101F09CFC002818BF0126D4E988
:1021A00000108A0345D5D4F880206FF0010303EBBB
:1021B0003223022B0BD34FEA322343B1012B40F0E1
:1021C000BB80D8F8003043F40033C8F800304DB37A
:1021D000CA0231D4CA0039D48A0242D44A004AD44D
:1021E000B1F1FF3F57DD09025FD4C10768D1810714
:1021F00071D441077BD4010700F18580C10600F14D
:102200008E80800607D504F12800022101F060FCD1
:10221000002818BF0125002D18BF01252846BDE85C
:10222000F08700BFD8F8283023F440731A43C8F869
:1022300028203546CA02CDD5D8F82420636F22F075
:1022400000421A43C8F82420CA00C5D558F81C2CEF
:10225000D4F8B83022F480421A4348F81C2C8A0281
:10226000BCD5D8F82420E36E22F080721A43C8F857
:1022700024204A00B4D558F81C2C22F4004248F817
:102280001C2CD4F8BC2058F81C3C1A4348F81C2CD1
:10229000B1F1FF3FA7DCD8F82020636D22F0405257
:1022A0001A43C8F8202009029FD5D8F82810D4F87E
:1022B0008C2021F440011143C8F82810C10796D0A2
:1022C00004F10800002101F06FFB002818BF05464B
:1022D000606881078DD504F10800012101F064FBDD
:1022E000002818BF0546606841077FF584AF04F1F8
:1022F0000800022101F058FB002818BF054660685D
:1023000001077FF57BAF04F12800002101F0E0FB1D
:10231000002818BF05466068C1067FF572AF04F15A
:102320002800012101F0D4FB002818BF0546606891
:1023300080067FF570AF66E70125CA027FF54AAFD8
:102340007AE700BFD4F8B4004FF6CF7358F81C2CCE
:10235000C0F2FF0300F4407122F47C5203EA101330
:102360006FF31F30B1F5407F08BF1A43002548F8CE
:102370001C2CD8F844100843C8F84400FFF7B9BC37
:102380002DE9F04381B0002800F02A8142F20008D4
:102390000446C5F200288946D8F8000000F00F0076
:1023A00088420ED2D8F8000020F00F0040EA090061
:1023B000C8F80000D8F8000000F00F00484540F0D1
:1023C0000F81206844F218474107C5F602070AD575
:1023D00021693A6802F07002914204D93A6822F009
:1023E00070021143396001070AD561697A6802F009
:1023F0007002914204D97A6822F070021143796028
:10240000C1060AD5A1697A6802F4E062914204D952
:102410007A6822F4E0621143796081060AD5E169A5
:10242000BA6802F07002914204D9BA6822F07002D0
:102430001143B96010F002010AD0E2683B6803F072
:102440000F039A4204D93B6823F00F031A433A6002
:10245000C20746D0386820F47061D4E9010201282F
:1024600041EA0201396009D003280DD0022811D1B8
:1024700057F8181C890340F1B38010E057F8181C76
:10248000C90540F1AD800AE057F8181C890140F1F8
:10249000A78004E057F8181C490740F1A18057F8BD
:1024A000081C21F00701084347F8080CFEF734FD2B
:1024B000064641F2883500BF57F8080C616800F005
:1024C0003800B0EBC10F09D0FEF726FD801BA842F3
:1024D000F2D9032001B0BDE8F08300BF206800F00E
:1024E000020151B1E1683A6802F00F02914204D250
:1024F0003A6822F00F0211433960D8F8001001F059
:102500000F0149450DD9D8F8001021F00F0141EA1B
:102510000901C8F80010D8F8001001F00F01494572
:102520005ED141070AD521693A6802F070029142F2
:1025300004D23A6822F070021143396001070AD5CB
:1025400061697A6802F07002914204D27A6822F0DE
:10255000700211437960C1060AD5A1697A6802F454
:10256000E062914204D27A6822F4E0621143796019
:1025700080060AD5E069B96801F07001884204D28A
:10258000B96821F070010843B86000F0E1F83968DB
:1025900047F2F4333A68C9F20103C1F3032102F0B0
:1025A0000F02595C9A5C01F01F0120FA01F102F060
:1025B0001F0040F2100221FA00F0C2F20042106047
:1025C00040F2080040F20C02C2F20040C2F20042A7
:1025D0000068116001B0BDE8F043FEF7E9BC00BF40
:1025E000012001B0BDE8F0833F22026044F21842AE
:1025F000C5F6020252F8083C03F007034360136873
:1026000003F470638360136803F00F03C3601368FF
:1026100003F070030361536803F070034361536870
:1026200003F4E0638361926802F07002C26142F2D7
:102630000000C5F20020006800F00F00086070473D
:1026400080B500F085F844F2184147F2F433C5F63E
:102650000201C9F201030A68096801F00F01C2F31F
:102660000322595C9A5C02F01F0220FA02F201F088
:102670001F0040F2100122FA00F0C2F2004108608F
:1026800040F20C01C2F200410A6080BD000000006F
:1026900080B500F05DF844F2184C47F2F431C5F60D
:1026A000020CC9F20101DCF80020DCF8003003F074
:1026B0000F03C2F30322CB5C8A5C02F01F02D040FE
:1026C00003F01F0240F2100320FA02F2C2F20043AC
:1026D0001A6040F20C03C2F200431860DCF80400F8
:1026E000C0F30210085C00F01F0022FA00F080BD69
:1026F00080B500F02DF844F2184C47F2F431C5F6DD
:10270000020CC9F20101DCF80020DCF8003003F013
:102710000F03C2F30322CB5C8A5C02F01F02D0409D
:1027200003F01F0240F2100320FA02F2C2F200434B
:102730001A6040F20C03C2F200431860DCF8040097
:10274000C0F30220085C00F01F0022FA00F080BDF8
:1027500044F20041C5F602010869C0F3C200032833
:1027600010D002282CD088BB0868800649F20000EF
:10277000C0F2D03058BF70470968C1F3C101C840EA
:10278000704700BF8A6A886AC0F3051CC86ABCF13A
:10279000000F4B6B20D0C3F3CC0300F00100584373
:1027A00002F00302022A00EE100AB8EE400A15D029
:1027B000C2B90868800619D49FED281A23E000BF2B
:1027C00047F64000C0F27D10704700BF40F6001091
:1027D000C0F23D00704700BF002070479FED1E1AF9
:1027E00011E000BF9FED1B1A0DE000BF086849F221
:1027F0000002C0F2D032C0F3C10022FA00F001EEB4
:10280000100AB8EE411A086B9FED153A6FF35F207E
:1028100002EE100A086BC0F34620B8EE422A0130DF
:1028200000EE032A00EE10CAB7EE003AB8EE400AF6
:1028300081EE000A32EE031A20EE010A01EE100AC0
:10284000B8EE411A80EE010ABCEEC00A10EE100A82
:10285000704700BF0024744A20BCBE4B0024744C57
:102860000000003900000000F0B581B0002800F041
:1028700063810446007844F20046C007C5F60206AC
:1028800022D12078800740F1BC80306910F03801F7
:10289000B06A3FD0182908BF5FEA80703AD0E0687C
:1028A0003168002862D021F0190108433060FEF73A
:1028B00033FB05463068400748D4FEF72DFB401B2C
:1028C0000228F7D977E100BF306900F03801B06A1B
:1028D000102905D018290BD100F00300022807D1D8
:1028E00030688003CDD560680028CAD124E100BFDC
:1028F000606800284CD0B0F5A02F61D0B0F5803FC3
:1029000062D0306820F480303060306820F480205D
:102910005DE000BF30684007E06802D5002800F0A5
:102920000B81316821F0190108433060FEF7F4FA99
:10293000054600BF3068400708D4FEF7EDFA401B9B
:1029400002284FF00300F5D921E200BFFEF7DCFAC0
:1029500041F20301884249D820697168402821F476
:102960007C314BD141F400304AE000BF21F001003E
:102970003060FEF7D1FA05463068400741D5FEF7D2
:10298000CBFA401B02284FF00300F5D9FFE100BF4E
:10299000306820F480303060306820F4802030606F
:1029A000FEF7BAFA054600BF306880037FF569AFCD
:1029B000FEF7B2FA401B64284FF00300F4D9E6E1B9
:1029C000306840F480203060306840F480303060FF
:1029D000FEF7A2FA054600BF306880033FF551AF0D
:1029E000FEF79AFA401B6428F6D9E4E07068216982
:1029F00020F0FE4040EA016002E000BF41EA003002
:102A000070602078C00654D5306900F03801B06A93
:102A1000082905D0182919D100F00300012815D183
:102A20003068C00503D5E069802840F08580FEF756
:102A30006BFA41F2030188421ED8206A716820288F
:102A400021F0F84132D141F0804031E0E0690028C6
:102A5000306819D040F080003060FEF75DFA05461E
:102A60003068C005E3D4FEF757FA401B02284FF048
:102A70000300F5D98BE100BFF068216A20F07C509B
:102A800040EA0160F06014E020F080003060FEF762
:102A900043FA05463068C0050BD5FEF73DFA401BEA
:102AA00002284FF00300F5D971E100BF41EA8060D0
:102AB00070602078000743D42078800654D42078B2
:102AC000400765D4656A9DB3306900F03800182866
:102AD00040F0A880012DB16A306B2DD001F00302C7
:102AE000A36A9A4228D1C1F30511E26A914223D127
:102AF0000146226B6FF35F21013A91421CD1C0F372
:102B00004622616B01398A4216D1C0F30642A16B9D
:102B100001398A4210D1C0F30660E16B0139884265
:102B20000AD1706BA16CC0F3CC00814240F03281BD
:102B3000002001B0F0BD00BF012001B0F0BD00BF1A
:102B400060690028706F39D040F001007067FEF7AF
:102B5000E3F90546706F8007AED4FEF7DDF9401B40
:102B60000228F7D927E000BFA0690028306847D0C5
:102B700040F480503060FEF7CFF90546306880049D
:102B80009DD4FEF7C9F9401B0228F7D913E000BF16
:102B9000D6F8000440F48070C6F80004FEF7BCF9D3
:102BA000054600BFD6F80004C00519D4FEF7B4F9F5
:102BB000401B6428F6D9032001B0F0BD20F00100CD
:102BC0007067FEF7A9F90546706F80077FF574AF4F
:102BD000FEF7A2F9401B02284FF00300F4D9D6E01B
:102BE000A068002840D0052858D001285AD0306F5E
:102BF00020F001003067306F20F0040055E000BF86
:102C000020F480503060FEF787F905463068800474
:102C10007FF555AFFEF780F9401B02284FF0030007
:102C2000F4D9B4E0306820F080703060FEF774F9B9
:102C3000022D05460CD100BF3068800148D5FEF753
:102C40006BF9401B02284FF00300F5D99FE000BF4D
:102C5000306880017FF56CAFFEF75EF9401B0228FB
:102C60004FF00300F4D992E0306F20F0010030679C
:102C7000306F20F004003067FEF74EF9054641F250
:102C80008837306F80077FF51DAFFEF745F9401B91
:102C9000B8424FF00300F4D979E000BF306F40F044
:102CA00004003067306F40F001003067FEF734F900
:102CB000054641F2883700BF306F80073FF502AF0D
:102CC000FEF72AF9401BB8424FF00300F4D95EE04A
:102CD00004F12807B06A40F2F33188438ECF0843ED
:102CE000591E40EA02104FF47E426FF35F21B0623A
:102CF00002EB47204FF4FE0280B2E36B0844A16B65
:102D000002EB01414FF0FE4201F4FE0102EB0362CF
:102D1000084402F0FE4108443063F06A4FF6F8714F
:102D200020F00100F062706BA26C884340EAC200A0
:102D30007063F06A216C20F00C000843F062F06AC6
:102D4000616C20F002000843F062F06A40F48030C9
:102D5000F062F06A40F40030F062F06A40F48020E3
:102D6000F062F06A40F00100F062306840F080707C
:102D70003060FEF7D1F80446306880013FF5D8AEE8
:102D8000FEF7CAF8001B02284FF00300F4D901B087
:102D9000F0BD00BFF06A20F00100F062FEF7BCF861
:102DA0000546FEF7B9F8A842FBD0706B4FF6F871F4
:102DB000A26C884340EAC2007063F06A40F00100F0
:102DC000F062002001B0F0BD20B3B0B5044690F829
:102DD0002C000D4628B9002084F82D00204600F074
:102DE0001BF8022084F82C002068211DFDF79CFDB3
:102DF000D4E900022946FDF703FE44F20000C5F2C3
:102E00000020016841F000410160012084F82C009D
:102E10000020B0BD012070472DE9F047B8B040F266
:102E200024600025C2F2004037953695017833952D
:102E3000CDE93455002940F0808002AC4FF0010804
:102E400080F8008004F10800B821FDF799FA4FF0EE
:102E500080700290204603951495FEF7F1FC08B1AE
:102E6000FDF75AFD44F2D44040F60004C5F60200D6
:102E7000C5F6020433AD4FF0020901684FF0000AB5
:102E800041F4805101600068294600F480500190AF
:102E9000019840F2FF60339004F5C050CDF8D09017
:102EA0000327CDF8D4A00C2636973796FDF720FFE0
:102EB00033A94FF68370CDE9367681E8010604F533
:102EC00000602946FDF714FF33A94FF60C70CDE9D9
:102ED000367681E8010604F5A0502946FDF708FF83
:102EE00033A948F23310CDE9367681E8010604F5BE
:102EF00080502946FDF7FCFE33A94CF20370CDE962
:102F0000367681E8010604F580602946FDF7F0FE7B
:102F100033A94FF63F00CDE9367681E8010604F586
:102F200040602946FDF7E4FE33A82946CDE9367610
:102F300080E800072046FDF7DBFE38B0BDE8F087EB
:102F4000B0B5054690F82C00022801D10220B0BD92
:102F500095F82C000124012808D1022085F82C00C6
:102F60002868FDF729FD85F82C4000242046B0BDD7
:102F7000B0B590F82C3004460D460220052B04D045
:102F8000022B08BFB0BD012B0ED184F82C002946BE
:102F90002068FDF71DFD2868022807D1052084F868
:102FA0002C000020B0BD00BF0120B0BD012084F87E
:102FB0002C000020B0BD00007047000000000000A1
:102FC0007047000000000000704700000000000093
:102FD00060B310B5044690F83D0028B9002084F88D
:102FE0003C00204600F024F8022084F83D002068D0
:102FF000211D00F0B9FF012084F8480084F83E004C
:1030000084F83F0084F8400084F8410084F84200CE
:1030100084F8430084F8440084F8450084F84600AE
:1030200084F8470084F83D00002010BD012070475F
:10303000704700000000000090F83D1001291BD1EE
:10304000022180F83D10016841F2FF70C4F20000D7
:103050008142C86840F00100C8600FDC40F2FF7098
:10306000C4F20000814217DCB1F1804F2CD040F255
:103070000040C4F2000025E00120704740F2FF301C
:10308000C4F20100814213DC41F60000C4F20000EA
:10309000814219D0002013E040F60000C4F2000085
:1030A000814211D040F60040C4F200000AE000BFA7
:1030B00044F20000C4F20100814205D040F2004019
:1030C000C4F2010081420BD107228868C0F20102DC
:1030D00002400020062A18BFB2F5803F00D1704799
:1030E000086840F001000860002070470000000000
:1030F000704700000000000010B504460068016938
:10310000890744BFC1685FEA81713FD401694907FB
:1031100044BFC1685FEA417144D40169090744BFF3
:10312000C1685FEA01714BD40169C90644BFC16837
:103130005FEAC16150D40169C9071CBFC1685FEA79
:10314000C17157D10169090644BFC1685FEA0161D5
:1031500058D40169C90544BFC1685FEA016159D407
:103160000169490644BFC1685FEA41615AD40169F7
:10317000890646BFC1685FEA816110BD6FF020011A
:1031800001612046BDE81040FFF71EBF6FF002014D
:10319000016101212177806980074BD02046FFF72C
:1031A000A7FF4DE06FF004010161022121778069E2
:1031B00010F4407F48D02046FFF79AFF4AE000BF56
:1031C0006FF00801016104212177C069800745D0B3
:1031D0002046FFF78DFF47E06FF0100101610821E5
:1031E0002177C06910F4407F42D02046FFF780FF6E
:1031F00044E000BF6FF001010161204600F04CF88F
:1032000020689FE76FF0800101612046FFF7D8FE3C
:1032100020689EE76FF4807101612046FFF7CCFEC5
:1032200020689DE76FF040010161204600F040F802
:1032300020689CE7204600F027F8204600F028F898
:1032400000202077206861E7204600F01DF8204626
:1032500000F01EF80020207720685EE7204600F08E
:1032600013F8204600F014F80020207720685BE770
:10327000204600F009F8204600F00AF800202077E8
:10328000206858E7000000007047000000000000C0
:10329000704700000000000044F600010068C4F21E
:1032A0000101884218BF7047FDF73EBE00000000D4
:1032B000704700000000000090F88410012901D13F
:1032C000022070472421C0F8881002681368116832
:1032D00023F0005321F001011160002141661360C9
:1032E0002022C0F8882080F884100846704700002B
:1032F00070B590F88420012A02D1022070BD00BF71
:103300002422C0F888200268D0F864E0BEF1000FE3
:10331000D2F800C0136823F001031360936823F010
:10332000606341EA030191601AD0916847F2744EDC
:103330009368C9F2010E5B0F47F27C45C1F3426608
:10334000C9F201051EF80340E95C2301B3FBF1F16A
:103350001EF80630AE5D1B01B3FBF6F302E000BFC2
:1033600001210123A0F86A102021A0F86830C2F8DA
:1033700000C0C0F88810002180F88410084670BD95
:1033800070B590F88420012A02D1022070BD00BFE0
:103390002422C0F888200268D0F864E0BEF1000F53
:1033A000D2F800C0136823F001031360936823F080
:1033B000604341EA030191601AD0916847F2744E6C
:1033C0009368C9F2010E5B0F47F27C45C1F3426678
:1033D000C9F201051EF80340E95C2301B3FBF1F1DA
:1033E0001EF80630AE5D1B01B3FBF6F302E000BF32
:1033F00001210123A0F86A102021A0F86830C2F84A
:1034000000C0C0F88810002180F88410084670BD04
:1034100010B5B0B10446D0F8880028B9002084F86F
:103420008400204600F028F82420C4F88800206892
:10343000016821F00101016020460BF0C1F801286C
:1034400002D1012010BD00BFA06A10B120460AF0D1
:103450008BFF2068416821F490414160816821F030
:103460002A018160016841F0010101602046BDE848
:1034700010400AF0E9BF0000B0B5B8B0044602A899
:103480000830B82100253395CDE93655CDE93455BE
:10349000FCF776FF41F200012068C4F20101884286
:1034A00002D038B0B0BD00BF0120029002A8039541
:1034B0002195FEF7C5F908B1FDF72EFA44F2E04078
:1034C000C5F60200016941F010010161016901F0D6
:1034D000100101910199016841F00101016000684A
:1034E00033A900F00100019001984FF4C0603390BF
:1034F000022034900020359003203690072037902A
:103500000020C5F60200FDF7F3FB38B0B0BD0000A7
:103510002DE9F04182B00446D0F8880020283FD140
:103520000E4600294FF001004BD01746002A48D024
:103530001D464FF00008C4F890802120C4F8880090
:10354000FDF7EAFCA4F85470A4F856700746A16889
:10355000B1F5805F0FD12069002814BF3046B04616
:10356000064608E0206816F8011B8162B4F8560090
:103570000138A4F85600B4F85600A8B18021002202
:1035800020463B4600950BF00BFBE8B9002EE9D135
:1035900038F8020B216800266FF35F208862E5E7A8
:1035A000022002B0BDE8F0814021002220463B46C7
:1035B00000950BF0F5FA20210028C4F8881018BFF8
:1035C000032002B0BDE8F0812020C4F88800032069
:1035D00002B0BDE8F0810000FEE70000000000003E
:1035E0002DE9F04393B06D4641F6004841F20006E4
:1035F00034212846C5F60208C5F20026FCF7C0FEB5
:103600004FF4487001904FF4F0710391CDE90A0135
:10361000FF2005904FF4806007900520089040F649
:10362000CC000022C2F200402946002702974FF04A
:103630000209CDF810904FF0404409940697ADF878
:1036400030708DF83270FDF703FD44F2E0401297C0
:10365000C5F60200016841F08001016000680EA912
:1036600000F080000D900D9840200E900120CDE9D3
:103670000F0740461197FDF73BFB402100224046D3
:10368000FDF73AFC40F24C2040F2B011C2F200408B
:10369000C2F2004100F1080201604FF6FF7182E8BA
:1036A000820244614FF081718161306820F0010035
:1036B00030604FF44030306040F2E010C6F8349093
:1036C0003764C0F22030F4637064B763306840F050
:1036D000010030603068C00709D03068C0071CBFE7
:1036E00030685FEAC07002D03068C007F2D140F69F
:1036F000CC000021C2F20040FDF75AFE4021012219
:103700004046FDF7F9FB13B0BDE8F0830000000070
:1037100070B586B044F2E0400025C5F6020005957C
:1037200040F6000400220168C5F6020441F00401DD
:10373000016000684FF4005100F004000090009810
:1037400020464FF40056FDF7D7FB012001A9CDE933
:103750000205204601960495FDF7CAFA06B070BD31
:1037600040F6CC00C2F20040FDF7B2BC0000000001
:10377000F0B500EBC2120027D1E900CED1E9023446
:10378000C568D2F8886006F47046C2F88860C668DA
:10379000C0F6FF773D40C6F30B46664405EB0E4589
:1037A00001363543C2F88850C568D2F88C606FF393
:1037B000DF2506F47046C2F88C602C44C0686FF3B5
:1037C000DF201844013040EA0440C2F88C00D2F8EF
:1037D000940020F00700C2F894000B69C2F89430FE
:1037E00091F83200072B91F831404FEA00408D6983
:1037F000D2F89C604FF00006C2F89C6040EA0420BA
:1038000091F8307040EA056040F207743844C2F81D
:103810009C00D2F8980020F0FF00C2F89800486998
:10382000C2F89800D2F8A00020EA0400C2F8A00074
:10383000D1E9070440EA0400C2F8A00002F18400C4
:10384000D2F8AC40C2F8AC604C6AC2F8AC4007D8C1
:1038500047F25442C9F2010252F8232001E000BFAE
:103860000122C36AAEEB0C0703F0E023C3628B6A4C
:10387000C96A53437A43073242EA0342C262026B87
:1038800040F2FF739A4302630163016841F0010152
:103890000160F0BD00000000FEE700000000000035
:1038A000FEE7000000000000B0B586B044F2E04141
:1038B0000020C5F60201059042F2000401AD0A683D
:1038C000C5F6020442F480720A600A6802F480724B
:1038D0000092009A0A6842F480720A60096801F452
:1038E00080710091009902900221039104904FF49D
:1038F0000060019020462946FDF7FAF94FF48070E8
:10390000019020462946FDF7F3F94FF47A6002F062
:1039100093F94FF480712046FDF7DEFA01280CD0B0
:103920004FF400612046FDF7D7FA012805D040F298
:1039300068200121C2F20040017006B0B0BD000055
:10394000EFF30980BFF36F8F154B1A681EF0100F4D
:1039500008BF20ED108A20E9F04F10602DE9090022
:103960004FF0500072B680F31188BFF34F8FBFF352
:103970006F8F62B610F010FC4FF0000080F31188DA
:10398000BDE8090019680868B0E8F04F1EF0100F94
:1039900008BFB0EC108A80F30988BFF36F8F7047BF
:1039A0008002002400000000F0B581B044F22C47F2
:1039B000C5F6020757F8042C02F00302032A03D1CC
:1039C000012001B0F0BD00BF054657F82C0C0C4695
:1039D00020F0806047F82C0CFDF79EFA064600BFE9
:1039E00057F82C0C000105D5FDF796FA801B02282C
:1039F000F6D964E057F8040CEE6895E80E0020F460
:103A00007C30012C40EA0130A2F101016FF35F210B
:103A10004FF47E4202EB432247F8040C92B24FF07F
:103A2000FE4302EB01004FF4FE012A6901EB06415F
:103A300001F4FE0103EB0262084402F0FE41084477
:103A4000F8603868696920F0C00040EA0100386019
:103A50003868A96920F0200040EA01003860386821
:103A60004FF6F87120F0100038603869EA6920EAF2
:103A700001004FF4001140EAC2003861386808BF05
:103A80004FF4801140F01000002C386008BF4FF454
:103A9000002138680843386057F82C0C40F08060EB
:103AA00047F82C0CFDF738FA044600BF57F82C0CE9
:103AB000000107D4FDF730FA001B0328F6D30320DA
:103AC00001B0F0BD002001B0F0BD0000000000001A
:103AD000F0B581B044F22C47C5F6020757F8042C24
:103AE00002F00302032A03D1012001B0F0BD00BFA0
:103AF000054657F82C0C0C4620F0805047F82C0C4B
:103B0000FDF70AFA064600BF57F82C0C800005D5D1
:103B1000FDF702FA801B0228F6D964E057F8040C7E
:103B2000EE6895E80E0020F07C70012C40EA015010
:103B3000A2F101016FF35F214FF47E4202EB4322B9
:103B400047F8040C92B24FF0FE4302EB01004FF431
:103B5000FE012A6901EB064101F4FE0103EB02625A
:103B6000084402F0FE41084478613868696920F42D
:103B7000406040EA010038603868A96920F40070AC
:103B800040EA0100386038684FF6F87120F4807020
:103B90003860B869EA6920EA01004FF0807140EAB4
:103BA000C200B861386808BF4FF4000140F480706B
:103BB000002C386008BF4FF4800138680843386033
:103BC00057F82C0C40F0805047F82C0CFDF7A4F966
:103BD000044600BF57F82C0C800007D4FDF79CF971
:103BE000001B0328F6D3032001B0F0BD002001B074
:103BF000F0BD0000000000002DE9F04182B040F26D
:103C000020660025C2F2004601954FF480524FF025
:103C10000108316810270446C1F80080C1E9017825
:103C2000CD60FFF7A5F90120FDF74EF831680220BD
:103C30004FF4805281E881012046CD60FFF798F96A
:103C4000316803204FF48052C1E900070820C1E920
:103C500002052046FFF78CF94FF40C700190316893
:103C600004204FF4805281E881010198C860204609
:103C7000FFF77EF940F20761204602B0BDE8F0414F
:103C8000FFF75EB900000000000000000000000027
:103C9000074B19680868B0E8F04F80F30988BFF354
:103CA0006F8F4FF0000080F31188704700BF00BF96
:103CB000800200240000000011F00EFB0EF0F8F965
:103CC0000EF026FA0BF044FF40F20824C2F2004442
:103CD000E0684FF0FF310EF0D3FD11F002FBE06819
:103CE0000EF03AFE0AF0D0FA10200EF081FDEFE758
:103CF00040F60004C5F602044FF400512046FDF7DB
:103D0000F3F864200EF074FDF6E7000000000000F8
:103D10000A200EF06DFDFBE780B54EF21000CEF2EA
:103D20000000006811F088F8012808BF80BDBDE8D8
:103D3000804010F039BB000070B59CB044F6180408
:103D400040F22C4509A84C21C5F60204C5F6000531
:103D5000FCF716FB02200026CDE90766CDE90566D3
:103D6000CDE90366CDE90166FDF7FEFB0096286804
:103D700020F001002860286800F001000090206811
:103D800040F440402060206800F4404000900098DB
:103D9000206880045FBF20685FEA804020685FEA97
:103DA000804002D420688004F2D54FF6DC40CFF684
:103DB000FF70215841F002012150205800F002000C
:103DC0000090009800200090206840F4404020605F
:103DD000206800F440400090286840F0010028600E
:103DE000286800F001000090009800BF206880045F
:103DF0005FBF20685FEA804020685FEA804002D4AD
:103E000020688004F2D5012009904FF480300A9098
:103E100002200521CDE912001491C021CDE9151031
:103E2000CDE9170009A8082419940025CDE91A55F1
:103E3000FEF71AFD20B1EFF3108072B6FEE700BF67
:103E40003F20019003204FF48061CDE9020540201E
:103E50000494CDE90500CDE9071001A80421FEF77F
:103E60008FFA28B1EFF3108072B600BFFEE700BFF3
:103E70001CB070BD0000000080B54EF6885C42F2B8
:103E8000000ECEF2000CC5F2002EDCF8001041F45A
:103E90007001CCF80010DEF8001001F00F010629C7
:103EA00006D8DEF80010072262F30301CEF80010F6
:103EB00044F200414EF67F53C5F60201CEF6F623DA
:103EC0000A6842F001020A6000220A61086818408C
:103ED0000860DEF80000000706D5DEF800000723C2
:103EE00063F30300CEF8000040F200208A61CA614B
:103EF000C0F202200A6288620020C0F2FF10C8628D
:103F000040F28020C0F2011008634A638863CA63EC
:103F100008644A64086820F48020086041F20000C8
:103F20000A66C5F600400068B2EB507F05D148F242
:103F300008100121C5F20010016044F2000043F2B4
:103F4000D201C5F2002001604FF010404CF8800C07
:103F500080BD00000000000040F67410C2F2004076
:103F6000FFF7CAB80000000010B540F6FF32C4F2F7
:103F70000002904202680FDCB0F1804F1DD040F289
:103F80000043C4F20003984217D040F60003C4F285
:103F90000003984211D014E040F60043C4F200033D
:103FA00098420AD040F20043C4F20103984204D080
:103FB0000023C4F20103984203D122F070024B683F
:103FC0001A434FF6FF7343F6FF7CC4F20003C4F2BA
:103FD000010C984214DD604522DD44F20003C4F276
:103FE0000103984234D044F60003C4F2010398421E
:103FF0002ED044F20043C4F20103984228D02BE0B3
:1040000040F2FF73C4F20003984215DCB0F1804F18
:104010001ED040F20043C4F20003984218D01BE0C7
:104020000023C4F20103984212D040F20043C4F2CC
:10403000010398420CD00FE040F60003C4F20003E5
:10404000984205D040F60043C4F20003984203D1E1
:1040500022F44072CB681A4322F080024C6960451A
:10406000D1F800E08B6842EA04020260C362C0F843
:1040700028E015DD44F20002C4F2010290421AD099
:1040800044F60002C4F20102904214D044F200420D
:10409000C4F2010290420ED00121416110BD00BF67
:1040A0000022C4F20102904205D040F20042C4F264
:1040B00001029042F0D1096901630121416110BD03
:1040C000B0B582B041F600441021C5F602040022CA
:1040D00020460025FCF710FFADF80050BDF80000A9
:1040E000072824D8BDF800000130ADF80000BDF865
:1040F000000008281BD2BDF800000130ADF8000018
:10410000BDF8000007289FBFBDF800000130ADF8E2
:104110000000BDF8000098BF072808D8BDF80000CF
:104120000130ADF80000BDF800000828DAD3ADF882
:104130000050BDF80000072824D8BDF80000013069
:10414000ADF80000BDF8000008281BD2BDF8000043
:104150000130ADF80000BDF8000007289FBFBDF892
:1041600000000130ADF80000BDF8000098BF07283E
:1041700008D8BDF800000130ADF80000BDF800001F
:104180000828DAD30020ADF80000BDF80010072998
:1041900024D8BDF800100131ADF80010BDF80010B2
:1041A00008291BD2BDF800100131ADF80010BDF890
:1041B000001007299FBFBDF800100131ADF80010B5
:1041C000BDF8001098BF072908D8BDF800100131CC
:1041D000ADF80010BDF800100829DAD3ADF80000E2
:1041E000BDF80000072824D8BDF800000130ADF864
:1041F0000000BDF8000008281BD2BDF80000013007
:10420000ADF80000BDF8000007289FBFBDF8000012
:104210000130ADF80000BDF8000098BF072808D8AD
:10422000BDF800000130ADF80000BDF8000008281E
:10423000DAD30020ADF80000BDF80010072924D81B
:10424000BDF800100131ADF80010BDF800100829CC
:104250001BD2BDF800100131ADF80010BDF8001000
:1042600007299FBFBDF800100131ADF80010BDF85F
:10427000001098BF072908D8BDF800100131ADF82B
:104280000010BDF800100829DAD3ADF80000BDF821
:104290000000072824D8BDF800000130ADF8000068
:1042A000BDF8000008281BD2BDF800000130ADF8B1
:1042B0000000BDF8000007289FBFBDF800000130D6
:1042C000ADF80000BDF8000098BF072808D8BDF879
:1042D00000000130ADF80000BDF800000828DAD376
:1042E0000020ADF80000BDF80010072924D8BDF863
:1042F00000100131ADF80010BDF8001008291BD2E4
:10430000BDF800100131ADF80010BDF8001007290C
:104310009FBFBDF800100131ADF80010BDF80010CE
:1043200098BF072908D8BDF800100131ADF800107A
:10433000BDF800100829DAD3ADF80000BDF8000080
:10434000072824D8BDF800000130ADF80000BDF802
:10435000000008281BD2BDF800000130ADF80000B5
:10436000BDF8000007289FBFBDF800000130ADF880
:104370000000BDF8000098BF072808D8BDF800006D
:104380000130ADF80000BDF800000828DAD30020A5
:10439000ADF80000BDF80010072924D8BDF80010C2
:1043A0000131ADF80010BDF8001008291BD2BDF88E
:1043B00000100131ADF80010BDF8001007299FBFB3
:1043C000BDF800100131ADF80010BDF8001098BF25
:1043D000072908D8BDF800100131ADF80010BDF86C
:1043E00000100829DAD3ADF80000BDF80000072856
:1043F00024D8BDF800000130ADF80000BDF8000081
:1044000008281BD2BDF800000130ADF80000BDF84F
:10441000000007289FBFBDF800000130ADF8000084
:10442000BDF8000098BF072808D8BDF8000001308B
:10443000ADF80000BDF800000828DAD30020ADF880
:104440000000BDF80010072924D8BDF80010013184
:10445000ADF80010BDF8001008291BD2BDF80010FF
:104460000131ADF80010BDF8001007299FBFBDF85D
:1044700000100131ADF80010BDF8001098BF0729F9
:1044800008D8BDF800100131ADF80010BDF80010DB
:104490000829DAD3ADF80000BDF80000072824D8B9
:1044A000BDF800000130ADF80000BDF8000008289C
:1044B0001BD2BDF800000130ADF80000BDF80000CF
:1044C00007289FBFBDF800000130ADF80000BDF81F
:1044D000000098BF072808D8BDF800000130ADF8EB
:1044E0000000BDF800000828DAD30020ADF8000075
:1044F000BDF80010072924D8BDF800100131ADF82F
:104500000010BDF8001008291BD2BDF800100131C1
:10451000ADF80010BDF8001007299FBFBDF80010CE
:104520000131ADF80010BDF8001098BF072908D878
:10453000BDF800100131ADF80010BDF800100829D9
:10454000DAD3ADF80000BDF80000072824D8BDF884
:1045500000000130ADF80000BDF8000008281BD2B3
:10456000BDF800000130ADF80000BDF800000728DC
:104570009FBFBDF800000130ADF80000BDF800009D
:1045800098BF072808D8BDF800000130ADF800003A
:10459000BDF800000828DAD30020ADF80000BDF80F
:1045A0000010072924D8BDF800100131ADF8001023
:1045B000BDF8001008291BD2BDF800100131ADF87C
:1045C0000010BDF8001007299FBFBDF80010013191
:1045D000ADF80010BDF8001098BF072908D8BDF845
:1045E00000100131ADF80010BDF800100829DAD331
:1045F000ADF80000BDF80000072824D8BDF8000081
:104600000130ADF80000BDF8000008281BD2BDF84D
:1046100000000130ADF80000BDF8000007289FBF82
:10462000BDF800000130ADF80000BDF8000098BFF3
:10463000072808D8BDF800000130ADF80000BDF82B
:1046400000000828DAD30020ADF80000BDF8001003
:10465000072924D8BDF800100131ADF80010BDF8CD
:10466000001008291BD2BDF800100131ADF8001070
:10467000BDF8001007299FBFBDF800100131ADF84B
:104680000010BDF8001098BF072908D8BDF8001029
:104690000131ADF80010BDF800100829DAD3ADF8EB
:1046A0000000BDF80000072824D8BDF80000013044
:1046B000ADF80000BDF8000008281BD2BDF80000CE
:1046C0000130ADF80000BDF8000007289FBFBDF81D
:1046D00000000130ADF80000BDF8000098BF0728C9
:1046E00008D8BDF800000130ADF80000BDF80000AA
:1046F0000828DAD30020ADF80000BDF80010072923
:1047000024D8BDF800100131ADF80010BDF800103C
:1047100008291BD2BDF800100131ADF80010BDF81A
:10472000001007299FBFBDF800100131ADF800103F
:10473000BDF8001098BF072908D8BDF80010013156
:10474000ADF80010BDF800100829DAD3ADF800006C
:10475000BDF80000072824D8BDF800000130ADF8EE
:104760000000BDF8000008281BD2BDF80000013091
:10477000ADF80000BDF8000007289FBFBDF800009D
:104780000130ADF80000BDF8000098BF072808D838
:10479000BDF800000130ADF80000BDF800000828A9
:1047A000DAD32021002220460025FCF7A5FBADF836
:1047B0000650BDF80600072824D8BDF806000130D1
:1047C000ADF80600BDF8060008281BD2BDF80600AB
:1047D0000130ADF80600BDF8060007289FBFBDF800
:1047E00006000130ADF80600BDF8060098BF0728A6
:1047F00008D8BDF806000130ADF80600BDF8060087
:104800000828DAD3ADF80650BDF80600072824D8EA
:10481000BDF806000130ADF80600BDF80600082816
:104820001BD2BDF806000130ADF80600BDF8060049
:1048300007289FBFBDF806000130ADF80600BDF89F
:10484000060098BF072808D8BDF806000130ADF86B
:104850000600BDF806000828DAD30020ADF80600EF
:10486000BDF80610072924D8BDF806100131ADF8AF
:104870000610BDF8061008291BD2BDF8061001313C
:10488000ADF80610BDF8061007299FBFBDF8061049
:104890000131ADF80610BDF8061098BF072908D8F9
:1048A000BDF806100131ADF80610BDF80610082954
:1048B000DAD3ADF80600BDF80600072824D8BDF805
:1048C00006000130ADF80600BDF8060008281BD22E
:1048D000BDF806000130ADF80600BDF80600072857
:1048E0009FBFBDF806000130ADF80600BDF8060018
:1048F00098BF072808D8BDF806000130ADF80600BB
:10490000BDF806000828DAD30020ADF80600BDF88F
:104910000610072924D8BDF806100131ADF806109D
:10492000BDF8061008291BD2BDF806100131ADF8FC
:104930000610BDF8061007299FBFBDF8061001310B
:10494000ADF80610BDF8061098BF072908D8BDF8C5
:1049500006100131ADF80610BDF806100829DAD3AB
:10496000ADF80600BDF80600072824D8BDF80600FB
:104970000130ADF80600BDF8060008281BD2BDF8CE
:1049800006000130ADF80600BDF8060007289FBFFD
:10499000BDF806000130ADF80600BDF8060098BF6E
:1049A000072808D8BDF806000130ADF80600BDF8AC
:1049B00006000828DAD30020ADF80600BDF806107E
:1049C000072924D8BDF806100131ADF80610BDF84E
:1049D000061008291BD2BDF806100131ADF80610EB
:1049E000BDF8061007299FBFBDF806100131ADF8CC
:1049F0000610BDF8061098BF072908D8BDF80610A4
:104A00000131ADF80610BDF806100829DAD3ADF86B
:104A10000600BDF80600072824D8BDF806000130BE
:104A2000ADF80600BDF8060008281BD2BDF8060048
:104A30000130ADF80600BDF8060007289FBFBDF89D
:104A400006000130ADF80600BDF8060098BF072843
:104A500008D8BDF806000130ADF80600BDF8060024
:104A60000828DAD30020ADF80600BDF806100729A3
:104A700024D8BDF806100131ADF80610BDF80610B7
:104A800008291BD2BDF806100131ADF80610BDF89B
:104A9000061007299FBFBDF806100131ADF80610BA
:104AA000BDF8061098BF072908D8BDF806100131D7
:104AB000ADF80610BDF806100829DAD3ADF80600E7
:104AC000BDF80600072824D8BDF806000130ADF86F
:104AD0000600BDF8060008281BD2BDF8060001300C
:104AE000ADF80600BDF8060007289FBFBDF8060018
:104AF0000130ADF80600BDF8060098BF072808D8B9
:104B0000BDF806000130ADF80600BDF80600082823
:104B1000DAD30020ADF80600BDF80610072924D826
:104B2000BDF806100131ADF80610BDF806100829D1
:104B30001BD2BDF806100131ADF80610BDF8061005
:104B400007299FBFBDF806100131ADF80610BDF86A
:104B5000061098BF072908D8BDF806100131ADF836
:104B60000610BDF806100829DAD3ADF80600BDF826
:104B70000600072824D8BDF806000130ADF806006D
:104B8000BDF8060008281BD2BDF806000130ADF8BC
:104B90000600BDF8060007289FBFBDF806000130DB
:104BA000ADF80600BDF8060098BF072808D8BDF884
:104BB00006000130ADF80600BDF806000828DAD37B
:104BC0000020ADF80600BDF80610072924D8BDF86E
:104BD00006100131ADF80610BDF8061008291BD2E9
:104BE000BDF806100131ADF80610BDF80610072912
:104BF0009FBFBDF806100131ADF80610BDF80610D4
:104C000098BF072908D8BDF806100131ADF8061085
:104C1000BDF806100829DAD3ADF80600BDF8060085
:104C2000072824D8BDF806000130ADF80600BDF80D
:104C3000060008281BD2BDF806000130ADF80600BA
:104C4000BDF8060007289FBFBDF806000130ADF88B
:104C50000600BDF8060098BF072808D8BDF8060072
:104C60000130ADF80600BDF806000828DAD30020B0
:104C7000ADF80600BDF80610072924D8BDF80610C7
:104C80000131ADF80610BDF8061008291BD2BDF899
:104C900006100131ADF80610BDF8061007299FBFB8
:104CA000BDF806100131ADF80610BDF8061098BF2A
:104CB000072908D8BDF806100131ADF80610BDF877
:104CC00006100829DAD3ADF80600BDF8060007285B
:104CD00024D8BDF806000130ADF80600BDF8060086
:104CE00008281BD2BDF806000130ADF80600BDF85B
:104CF000060007289FBFBDF806000130ADF806008A
:104D0000BDF8060098BF072808D8BDF80600013096
:104D1000ADF80600BDF806000828DAD30020ADF88B
:104D20000600BDF80610072924D8BDF80610013189
:104D3000ADF80610BDF8061008291BD2BDF8061004
:104D40000131ADF80610BDF8061007299FBFBDF868
:104D500006100131ADF80610BDF8061098BF0729FE
:104D600008D8BDF806100131ADF80610BDF80610E0
:104D70000829DAD3ADF80600BDF80600072824D8C4
:104D8000BDF806000130ADF80600BDF806000828A1
:104D90001BD2BDF806000130ADF80600BDF80600D4
:104DA00007289FBFBDF806000130ADF80600BDF82A
:104DB000060098BF072808D8BDF806000130ADF8F6
:104DC0000600BDF806000828DAD30020ADF806007A
:104DD000BDF80610072924D8BDF806100131ADF83A
:104DE0000610BDF8061008291BD2BDF806100131C7
:104DF000ADF80610BDF8061007299FBFBDF80610D4
:104E00000131ADF80610BDF8061098BF072908D883
:104E1000BDF806100131ADF80610BDF806100829DE
:104E2000DAD3ADF80600BDF80600072824D8BDF88F
:104E300006000130ADF80600BDF8060008281BD2B8
:104E4000BDF806000130ADF80600BDF806000728E1
:104E50009FBFBDF806000130ADF80600BDF80600A2
:104E600098BF072808D8BDF806000130ADF8060045
:104E7000BDF806000828DAD3102101222046FCF7ED
:104E80003BF80020ADF80400BDF80410072924D831
:104E9000BDF804100131ADF80410BDF80410082964
:104EA0001BD2BDF804100131ADF80410BDF8041098
:104EB00007299FBFBDF804100131ADF80410BDF8FB
:104EC000041098BF072908D8BDF804100131ADF8C7
:104ED0000410BDF804100829DAD3ADF80400BDF8B9
:104EE0000400072824D8BDF804000130ADF8040000
:104EF000BDF8040008281BD2BDF804000130ADF84D
:104F00000400BDF8040007289FBFBDF8040001306D
:104F1000ADF80400BDF8040098BF072808D8BDF814
:104F200004000130ADF80400BDF804000828DAD30D
:104F30000020ADF80400BDF80410072924D8BDF8FE
:104F400004100131ADF80410BDF8041008291BD27B
:104F5000BDF804100131ADF80410BDF804100729A4
:104F60009FBFBDF804100131ADF80410BDF8041066
:104F700098BF072908D8BDF804100131ADF8041016
:104F8000BDF804100829DAD3ADF80400BDF8040018
:104F9000072824D8BDF804000130ADF80400BDF89E
:104FA000040008281BD2BDF804000130ADF804004D
:104FB000BDF8040007289FBFBDF804000130ADF81C
:104FC0000400BDF8040098BF072808D8BDF8040005
:104FD0000130ADF80400BDF804000828DAD3002041
:104FE000ADF80400BDF80410072924D8BDF804105A
:104FF0000131ADF80410BDF8041008291BD2BDF82A
:1050000004100131ADF80410BDF8041007299FBF4A
:10501000BDF804100131ADF80410BDF8041098BFBC
:10502000072908D8BDF804100131ADF80410BDF807
:1050300004100829DAD3ADF80400BDF804000728ED
:1050400024D8BDF804000130ADF80400BDF8040018
:1050500008281BD2BDF804000130ADF80400BDF8EB
:10506000040007289FBFBDF804000130ADF804001C
:10507000BDF8040098BF072808D8BDF80400013027
:10508000ADF80400BDF804000828DAD30020ADF81C
:105090000400BDF80410072924D8BDF8041001311C
:1050A000ADF80410BDF8041008291BD2BDF8041097
:1050B0000131ADF80410BDF8041007299FBFBDF8F9
:1050C00004100131ADF80410BDF8041098BF072991
:1050D00008D8BDF804100131ADF80410BDF8041073
:1050E0000829DAD3ADF80400BDF80400072824D855
:1050F000BDF804000130ADF80400BDF80400082834
:105100001BD2BDF804000130ADF80400BDF8040066
:1051100007289FBFBDF804000130ADF80400BDF8BA
:10512000040098BF072808D8BDF804000130ADF886
:105130000400BDF804000828DAD30020ADF804000C
:10514000BDF80410072924D8BDF804100131ADF8CA
:105150000410BDF8041008291BD2BDF80410013159
:10516000ADF80410BDF8041007299FBFBDF8041066
:105170000131ADF80410BDF8041098BF072908D814
:10518000BDF804100131ADF80410BDF80410082971
:10519000DAD3ADF80400BDF80400072824D8BDF820
:1051A00004000130ADF80400BDF8040008281BD24B
:1051B000BDF804000130ADF80400BDF80400072874
:1051C0009FBFBDF804000130ADF80400BDF8040035
:1051D00098BF072808D8BDF804000130ADF80400D6
:1051E000BDF804000828DAD30020ADF80400BDF8AB
:1051F0000410072924D8BDF804100131ADF80410BB
:10520000BDF8041008291BD2BDF804100131ADF817
:105210000410BDF8041007299FBFBDF80410013128
:10522000ADF80410BDF8041098BF072908D8BDF8E0
:1052300004100131ADF80410BDF804100829DAD3C8
:10524000ADF80400BDF80400072824D8BDF8040018
:105250000130ADF80400BDF8040008281BD2BDF8E9
:1052600004000130ADF80400BDF8040007289FBF1A
:10527000BDF804000130ADF80400BDF8040098BF8B
:10528000072808D8BDF804000130ADF80400BDF8C7
:1052900004000828DAD30020ADF80400BDF804109B
:1052A000072924D8BDF804100131ADF80410BDF869
:1052B000041008291BD2BDF804100131ADF8041008
:1052C000BDF8041007299FBFBDF804100131ADF8E7
:1052D0000410BDF8041098BF072908D8BDF80410C1
:1052E0000131ADF80410BDF804100829DAD3ADF887
:1052F0000400BDF80400072824D8BDF804000130DC
:10530000ADF80400BDF8040008281BD2BDF8040065
:105310000130ADF80400BDF8040007289FBFBDF8B8
:1053200004000130ADF80400BDF8040098BF072860
:1053300008D8BDF804000130ADF80400BDF8040041
:105340000828DAD30020ADF80400BDF804100729BE
:1053500024D8BDF804100131ADF80410BDF80410D4
:1053600008291BD2BDF804100131ADF80410BDF8B6
:10537000041007299FBFBDF804100131ADF80410D7
:10538000BDF8041098BF072908D8BDF804100131F2
:10539000ADF80410BDF804100829DAD3ADF8040004
:1053A000BDF80400072824D8BDF804000130ADF88A
:1053B0000400BDF8040008281BD2BDF80400013029
:1053C000ADF80400BDF8040007289FBFBDF8040035
:1053D0000130ADF80400BDF8040098BF072808D8D4
:1053E000BDF804000130ADF80400BDF80400082841
:1053F000DAD30020ADF80400BDF80410072924D842
:10540000BDF804100131ADF80410BDF804100829EE
:105410001BD2BDF804100131ADF80410BDF8041022
:1054200007299FBFBDF804100131ADF80410BDF885
:10543000041098BF072908D8BDF804100131ADF851
:105440000410BDF804100829DAD3ADF80400BDF843
:105450000400072824D8BDF804000130ADF804008A
:10546000BDF8040008281BD2BDF804000130ADF8D7
:105470000400BDF8040007289FBFBDF804000130F8
:10548000ADF80400BDF8040098BF072808D8BDF89F
:1054900004000130ADF80400BDF804000828DAD398
:1054A0000020ADF80400BDF80410072924D8BDF889
:1054B00004100131ADF80410BDF8041008291BD206
:1054C000BDF804100131ADF80410BDF8041007292F
:1054D0009FBFBDF804100131ADF80410BDF80410F1
:1054E00098BF072908D8BDF804100131ADF80410A1
:1054F000BDF804100829DAD3ADF80400BDF80400A3
:10550000072824D8BDF804000130ADF80400BDF828
:10551000040008281BD2BDF804000130ADF80400D7
:10552000BDF8040007289FBFBDF804000130ADF8A6
:105530000400BDF8040098BF072808D8BDF804008F
:105540000130ADF80400BDF804000828DAD31021BA
:10555000002220460025FBF7CFFC20210122204617
:10556000FBF7CAFCADF80250BDF80200072824D8AA
:10557000BDF802000130ADF80200BDF802000828B5
:105580001BD2BDF802000130ADF80200BDF80200E8
:1055900007289FBFBDF802000130ADF80200BDF83A
:1055A000020098BF072808D8BDF802000130ADF806
:1055B0000200BDF802000828DAD3ADF80250BDF8A9
:1055C0000200072824D8BDF802000130ADF802001F
:1055D000BDF8020008281BD2BDF802000130ADF86A
:1055E0000200BDF8020007289FBFBDF8020001308D
:1055F000ADF80200BDF8020098BF072808D8BDF832
:1056000002000130ADF80200BDF802000828DAD32C
:105610000020ADF80200BDF80210072924D8BDF81B
:1056200002100131ADF80210BDF8021008291BD29A
:10563000BDF802100131ADF80210BDF802100729C3
:105640009FBFBDF802100131ADF80210BDF8021085
:1056500098BF072908D8BDF802100131ADF8021033
:10566000BDF802100829DAD3ADF80200BDF8020037
:10567000072824D8BDF802000130ADF80200BDF8BB
:10568000020008281BD2BDF802000130ADF802006C
:10569000BDF8020007289FBFBDF802000130ADF839
:1056A0000200BDF8020098BF072808D8BDF8020024
:1056B0000130ADF80200BDF802000828DAD300205E
:1056C000ADF80200BDF80210072924D8BDF8021079
:1056D0000131ADF80210BDF8021008291BD2BDF847
:1056E00002100131ADF80210BDF8021007299FBF6A
:1056F000BDF802100131ADF80210BDF8021098BFDC
:10570000072908D8BDF802100131ADF80210BDF824
:1057100002100829DAD3ADF80200BDF8020007280C
:1057200024D8BDF802000130ADF80200BDF8020037
:1057300008281BD2BDF802000130ADF80200BDF808
:10574000020007289FBFBDF802000130ADF802003B
:10575000BDF8020098BF072808D8BDF80200013044
:10576000ADF80200BDF802000828DAD30020ADF839
:105770000200BDF80210072924D8BDF8021001313B
:10578000ADF80210BDF8021008291BD2BDF80210B6
:105790000131ADF80210BDF8021007299FBFBDF816
:1057A00002100131ADF80210BDF8021098BF0729B0
:1057B00008D8BDF802100131ADF80210BDF8021092
:1057C0000829DAD3ADF80200BDF80200072824D872
:1057D000BDF802000130ADF80200BDF80200082853
:1057E0001BD2BDF802000130ADF80200BDF8020086
:1057F00007289FBFBDF802000130ADF80200BDF8D8
:10580000020098BF072808D8BDF802000130ADF8A3
:105810000200BDF802000828DAD30020ADF802002B
:10582000BDF80210072924D8BDF802100131ADF8E7
:105830000210BDF8021008291BD2BDF80210013178
:10584000ADF80210BDF8021007299FBFBDF8021085
:105850000131ADF80210BDF8021098BF072908D831
:10586000BDF802100131ADF80210BDF80210082990
:10587000DAD3ADF80200BDF80200072824D8BDF83D
:1058800002000130ADF80200BDF8020008281BD26A
:10589000BDF802000130ADF80200BDF80200072893
:1058A0009FBFBDF802000130ADF80200BDF8020054
:1058B00098BF072808D8BDF802000130ADF80200F3
:1058C000BDF802000828DAD30020ADF80200BDF8C8
:1058D0000210072924D8BDF802100131ADF80210DA
:1058E000BDF8021008291BD2BDF802100131ADF835
:1058F0000210BDF8021007299FBFBDF80210013148
:10590000ADF80210BDF8021098BF072908D8BDF8FD
:1059100002100131ADF80210BDF802100829DAD3E7
:10592000ADF80200BDF80200072824D8BDF8020037
:105930000130ADF80200BDF8020008281BD2BDF806
:1059400002000130ADF80200BDF8020007289FBF39
:10595000BDF802000130ADF80200BDF8020098BFAA
:10596000072808D8BDF802000130ADF80200BDF8E4
:1059700002000828DAD30020ADF80200BDF80210BA
:10598000072924D8BDF802100131ADF80210BDF886
:10599000021008291BD2BDF802100131ADF8021027
:1059A000BDF8021007299FBFBDF802100131ADF804
:1059B0000210BDF8021098BF072908D8BDF80210E0
:1059C0000131ADF80210BDF802100829DAD3ADF8A4
:1059D0000200BDF80200072824D8BDF802000130FB
:1059E000ADF80200BDF8020008281BD2BDF8020085
:1059F0000130ADF80200BDF8020007289FBFBDF8D6
:105A000002000130ADF80200BDF8020098BF07287F
:105A100008D8BDF802000130ADF80200BDF8020060
:105A20000828DAD30020ADF80200BDF802100729DB
:105A300024D8BDF802100131ADF80210BDF80210F3
:105A400008291BD2BDF802100131ADF80210BDF8D3
:105A5000021007299FBFBDF802100131ADF80210F6
:105A6000BDF8021098BF072908D8BDF8021001310F
:105A7000ADF80210BDF802100829DAD3ADF8020023
:105A8000BDF80200072824D8BDF802000130ADF8A7
:105A90000200BDF8020008281BD2BDF80200013048
:105AA000ADF80200BDF8020007289FBFBDF8020054
:105AB0000130ADF80200BDF8020098BF072808D8F1
:105AC000BDF802000130ADF80200BDF80200082860
:105AD000DAD30020ADF80200BDF80210072924D85F
